{
  "_format": "hh-sol-artifact-1",
  "contractName": "SwapChain",
  "sourceName": "contracts/SwapChain.sol",
  "abi": [
    {
      "inputs": [],
      "stateMutability": "nonpayable",
      "type": "constructor"
    },
    {
      "inputs": [
        {
          "internalType": "address",
          "name": "target",
          "type": "address"
        }
      ],
      "name": "AddressEmptyCode",
      "type": "error"
    },
    {
      "inputs": [
        {
          "internalType": "address",
          "name": "account",
          "type": "address"
        }
      ],
      "name": "AddressInsufficientBalance",
      "type": "error"
    },
    {
      "inputs": [],
      "name": "FailedInnerCall",
      "type": "error"
    },
    {
      "inputs": [],
      "name": "InsufficientDeposit",
      "type": "error"
    },
    {
      "inputs": [],
      "name": "InvalidOrder",
      "type": "error"
    },
    {
      "inputs": [],
      "name": "OrderAlreadyCancelled",
      "type": "error"
    },
    {
      "inputs": [],
      "name": "OrderAlreadyFulfilled",
      "type": "error"
    },
    {
      "inputs": [
        {
          "internalType": "address",
          "name": "owner",
          "type": "address"
        }
      ],
      "name": "OwnableInvalidOwner",
      "type": "error"
    },
    {
      "inputs": [
        {
          "internalType": "address",
          "name": "account",
          "type": "address"
        }
      ],
      "name": "OwnableUnauthorizedAccount",
      "type": "error"
    },
    {
      "inputs": [],
      "name": "ReentrancyGuardReentrantCall",
      "type": "error"
    },
    {
      "inputs": [
        {
          "internalType": "address",
          "name": "token",
          "type": "address"
        }
      ],
      "name": "SafeERC20FailedOperation",
      "type": "error"
    },
    {
      "inputs": [],
      "name": "Unauthorized",
      "type": "error"
    },
    {
      "anonymous": false,
      "inputs": [
        {
          "indexed": true,
          "internalType": "address",
          "name": "depositor",
          "type": "address"
        },
        {
          "indexed": true,
          "internalType": "address",
          "name": "token",
          "type": "address"
        },
        {
          "indexed": false,
          "internalType": "uint256",
          "name": "amount",
          "type": "uint256"
        }
      ],
      "name": "DepositMade",
      "type": "event"
    },
    {
      "anonymous": false,
      "inputs": [
        {
          "indexed": true,
          "internalType": "uint256",
          "name": "orderId",
          "type": "uint256"
        },
        {
          "indexed": true,
          "internalType": "address",
          "name": "depositor",
          "type": "address"
        },
        {
          "indexed": true,
          "internalType": "address",
          "name": "tokenIn",
          "type": "address"
        },
        {
          "indexed": false,
          "internalType": "uint128",
          "name": "amountIn",
          "type": "uint128"
        }
      ],
      "name": "OrderCancelled",
      "type": "event"
    },
    {
      "anonymous": false,
      "inputs": [
        {
          "indexed": true,
          "internalType": "uint256",
          "name": "orderId",
          "type": "uint256"
        },
        {
          "indexed": true,
          "internalType": "address",
          "name": "depositor",
          "type": "address"
        },
        {
          "indexed": true,
          "internalType": "address",
          "name": "tokenIn",
          "type": "address"
        },
        {
          "indexed": false,
          "internalType": "address",
          "name": "tokenOut",
          "type": "address"
        },
        {
          "indexed": false,
          "internalType": "uint128",
          "name": "amountIn",
          "type": "uint128"
        },
        {
          "indexed": false,
          "internalType": "uint128",
          "name": "amountOut",
          "type": "uint128"
        }
      ],
      "name": "OrderCreated",
      "type": "event"
    },
    {
      "anonymous": false,
      "inputs": [
        {
          "indexed": true,
          "internalType": "uint256",
          "name": "orderId",
          "type": "uint256"
        },
        {
          "indexed": true,
          "internalType": "address",
          "name": "buyer",
          "type": "address"
        },
        {
          "indexed": true,
          "internalType": "address",
          "name": "tokenIn",
          "type": "address"
        },
        {
          "indexed": false,
          "internalType": "address",
          "name": "tokenOut",
          "type": "address"
        },
        {
          "indexed": false,
          "internalType": "uint128",
          "name": "amountIn",
          "type": "uint128"
        },
        {
          "indexed": false,
          "internalType": "uint128",
          "name": "amountOut",
          "type": "uint128"
        }
      ],
      "name": "OrderFulfilled",
      "type": "event"
    },
    {
      "anonymous": false,
      "inputs": [
        {
          "indexed": true,
          "internalType": "address",
          "name": "previousOwner",
          "type": "address"
        },
        {
          "indexed": true,
          "internalType": "address",
          "name": "newOwner",
          "type": "address"
        }
      ],
      "name": "OwnershipTransferred",
      "type": "event"
    },
    {
      "anonymous": false,
      "inputs": [
        {
          "indexed": true,
          "internalType": "address",
          "name": "user",
          "type": "address"
        },
        {
          "indexed": true,
          "internalType": "address",
          "name": "token",
          "type": "address"
        },
        {
          "indexed": false,
          "internalType": "uint256",
          "name": "amount",
          "type": "uint256"
        }
      ],
      "name": "Withdrawal",
      "type": "event"
    },
    {
      "inputs": [
        {
          "internalType": "uint256",
          "name": "orderId",
          "type": "uint256"
        }
      ],
      "name": "cancelOrder",
      "outputs": [],
      "stateMutability": "nonpayable",
      "type": "function"
    },
    {
      "inputs": [
        {
          "internalType": "address",
          "name": "tokenIn",
          "type": "address"
        },
        {
          "internalType": "address",
          "name": "tokenOut",
          "type": "address"
        },
        {
          "internalType": "uint128",
          "name": "amountIn",
          "type": "uint128"
        },
        {
          "internalType": "uint128",
          "name": "amountOut",
          "type": "uint128"
        }
      ],
      "name": "depositAndCreateOrder",
      "outputs": [],
      "stateMutability": "nonpayable",
      "type": "function"
    },
    {
      "inputs": [
        {
          "internalType": "uint256",
          "name": "orderId",
          "type": "uint256"
        }
      ],
      "name": "fulfillOrder",
      "outputs": [],
      "stateMutability": "nonpayable",
      "type": "function"
    },
    {
      "inputs": [
        {
          "internalType": "address",
          "name": "user",
          "type": "address"
        },
        {
          "internalType": "address",
          "name": "token",
          "type": "address"
        }
      ],
      "name": "getDeposit",
      "outputs": [
        {
          "internalType": "uint256",
          "name": "",
          "type": "uint256"
        }
      ],
      "stateMutability": "view",
      "type": "function"
    },
    {
      "inputs": [],
      "name": "nextOrderId",
      "outputs": [
        {
          "internalType": "uint256",
          "name": "",
          "type": "uint256"
        }
      ],
      "stateMutability": "view",
      "type": "function"
    },
    {
      "inputs": [
        {
          "internalType": "uint256",
          "name": "",
          "type": "uint256"
        }
      ],
      "name": "orders",
      "outputs": [
        {
          "internalType": "address",
          "name": "depositor",
          "type": "address"
        },
        {
          "internalType": "address",
          "name": "tokenIn",
          "type": "address"
        },
        {
          "internalType": "address",
          "name": "tokenOut",
          "type": "address"
        },
        {
          "internalType": "uint128",
          "name": "amountIn",
          "type": "uint128"
        },
        {
          "internalType": "uint128",
          "name": "amountOut",
          "type": "uint128"
        },
        {
          "internalType": "bool",
          "name": "fulfilled",
          "type": "bool"
        },
        {
          "internalType": "bool",
          "name": "cancelled",
          "type": "bool"
        }
      ],
      "stateMutability": "view",
      "type": "function"
    },
    {
      "inputs": [],
      "name": "owner",
      "outputs": [
        {
          "internalType": "address",
          "name": "",
          "type": "address"
        }
      ],
      "stateMutability": "view",
      "type": "function"
    },
    {
      "inputs": [
        {
          "internalType": "address",
          "name": "tokenAddress",
          "type": "address"
        },
        {
          "internalType": "uint256",
          "name": "tokenAmount",
          "type": "uint256"
        }
      ],
      "name": "recoverERC20",
      "outputs": [],
      "stateMutability": "nonpayable",
      "type": "function"
    },
    {
      "inputs": [],
      "name": "renounceOwnership",
      "outputs": [],
      "stateMutability": "nonpayable",
      "type": "function"
    },
    {
      "inputs": [
        {
          "internalType": "address",
          "name": "newOwner",
          "type": "address"
        }
      ],
      "name": "transferOwnership",
      "outputs": [],
      "stateMutability": "nonpayable",
      "type": "function"
    },
    {
      "inputs": [
        {
          "internalType": "address",
          "name": "token",
          "type": "address"
        },
        {
          "internalType": "uint256",
          "name": "amount",
          "type": "uint256"
        }
      ],
      "name": "withdraw",
      "outputs": [],
      "stateMutability": "nonpayable",
      "type": "function"
    }
  ],
  "bytecode": "0x60806040523480156200001157600080fd5b50336001600081905550600073ffffffffffffffffffffffffffffffffffffffff168173ffffffffffffffffffffffffffffffffffffffff1603620000905760006040517f1e4fbdf7000000000000000000000000000000000000000000000000000000008152600401620000879190620001b3565b60405180910390fd5b620000a181620000a860201b60201c565b50620001d0565b6000600160009054906101000a900473ffffffffffffffffffffffffffffffffffffffff16905081600160006101000a81548173ffffffffffffffffffffffffffffffffffffffff021916908373ffffffffffffffffffffffffffffffffffffffff1602179055508173ffffffffffffffffffffffffffffffffffffffff168173ffffffffffffffffffffffffffffffffffffffff167f8be0079c531659141344cd1fd0a4f28419497f9722a3daafe3b4186f6b6457e060405160405180910390a35050565b600073ffffffffffffffffffffffffffffffffffffffff82169050919050565b60006200019b826200016e565b9050919050565b620001ad816200018e565b82525050565b6000602082019050620001ca6000830184620001a2565b92915050565b61208780620001e06000396000f3fe608060405234801561001057600080fd5b50600436106100a95760003560e01c80638da5cb5b116100715780638da5cb5b1461012a578063a151dd6314610148578063a85c38ef14610164578063c35082a91461019a578063f2fde38b146101ca578063f3fef3a3146101e6576100a9565b80632a58b330146100ae578063514fcac7146100cc5780636311e830146100e8578063715018a6146101045780638980f11f1461010e575b600080fd5b6100b6610202565b6040516100c39190611ae9565b60405180910390f35b6100e660048036038101906100e19190611b35565b610208565b005b61010260048036038101906100fd9190611b35565b610549565b005b61010c610b18565b005b61012860048036038101906101239190611bc0565b610b2c565b005b610132610b6a565b60405161013f9190611c0f565b60405180910390f35b610162600480360381019061015d9190611c72565b610b94565b005b61017e60048036038101906101799190611b35565b610bd2565b6040516101919796959493929190611d03565b60405180910390f35b6101b460048036038101906101af9190611d72565b610cc6565b6040516101c19190611ae9565b60405180910390f35b6101e460048036038101906101df9190611db2565b610d50565b005b61020060048036038101906101fb9190611bc0565b610dd6565b005b60045481565b610210610fc9565b60006003600083815260200190815260200160002090508060000160009054906101000a900473ffffffffffffffffffffffffffffffffffffffff1673ffffffffffffffffffffffffffffffffffffffff163373ffffffffffffffffffffffffffffffffffffffff16146102b0576040517f82b4290000000000000000000000000000000000000000000000000000000000815260040160405180910390fd5b8060040160009054906101000a900460ff16156102f9576040517f6ba3851700000000000000000000000000000000000000000000000000000000815260040160405180910390fd5b8060040160019054906101000a900460ff1615610342576040517f7c87a47200000000000000000000000000000000000000000000000000000000815260040160405180910390fd5b8060030160009054906101000a90046fffffffffffffffffffffffffffffffff166fffffffffffffffffffffffffffffffff16600260008360000160009054906101000a900473ffffffffffffffffffffffffffffffffffffffff1673ffffffffffffffffffffffffffffffffffffffff1673ffffffffffffffffffffffffffffffffffffffff16815260200190815260200160002060000160008360010160009054906101000a900473ffffffffffffffffffffffffffffffffffffffff1673ffffffffffffffffffffffffffffffffffffffff1673ffffffffffffffffffffffffffffffffffffffff168152602001908152602001600020600082825461044b9190611e0e565b9250508190555060018160040160016101000a81548160ff0219169083151502179055508060010160009054906101000a900473ffffffffffffffffffffffffffffffffffffffff1673ffffffffffffffffffffffffffffffffffffffff168160000160009054906101000a900473ffffffffffffffffffffffffffffffffffffffff1673ffffffffffffffffffffffffffffffffffffffff16837fff5b9d1a1f746064c7a8f338e0024133dd362446567f3a08b17d45f97ddc30bf8460030160009054906101000a90046fffffffffffffffffffffffffffffffff166040516105359190611e42565b60405180910390a45061054661100f565b50565b610551610fc9565b60006003600083815260200190815260200160002090508060040160009054906101000a900460ff16156105b1576040517f6ba3851700000000000000000000000000000000000000000000000000000000815260040160405180910390fd5b8060040160019054906101000a900460ff16156105fa576040517f7c87a47200000000000000000000000000000000000000000000000000000000815260040160405180910390fd5b8060030160109054906101000a90046fffffffffffffffffffffffffffffffff166fffffffffffffffffffffffffffffffff16600260003373ffffffffffffffffffffffffffffffffffffffff1673ffffffffffffffffffffffffffffffffffffffff16815260200190815260200160002060000160008360020160009054906101000a900473ffffffffffffffffffffffffffffffffffffffff1673ffffffffffffffffffffffffffffffffffffffff1673ffffffffffffffffffffffffffffffffffffffff168152602001908152602001600020541015610709576040517f0e1eddda00000000000000000000000000000000000000000000000000000000815260040160405180910390fd5b600033905060008260000160009054906101000a900473ffffffffffffffffffffffffffffffffffffffff1690508260030160109054906101000a90046fffffffffffffffffffffffffffffffff166fffffffffffffffffffffffffffffffff16600260008473ffffffffffffffffffffffffffffffffffffffff1673ffffffffffffffffffffffffffffffffffffffff16815260200190815260200160002060000160008560020160009054906101000a900473ffffffffffffffffffffffffffffffffffffffff1673ffffffffffffffffffffffffffffffffffffffff1673ffffffffffffffffffffffffffffffffffffffff168152602001908152602001600020600082825461081c9190611e5d565b925050819055508260030160009054906101000a90046fffffffffffffffffffffffffffffffff166fffffffffffffffffffffffffffffffff16600260008373ffffffffffffffffffffffffffffffffffffffff1673ffffffffffffffffffffffffffffffffffffffff16815260200190815260200160002060000160008560010160009054906101000a900473ffffffffffffffffffffffffffffffffffffffff1673ffffffffffffffffffffffffffffffffffffffff1673ffffffffffffffffffffffffffffffffffffffff16815260200190815260200160002060008282546109089190611e0e565b925050819055508260030160109054906101000a90046fffffffffffffffffffffffffffffffff166fffffffffffffffffffffffffffffffff16600260008373ffffffffffffffffffffffffffffffffffffffff1673ffffffffffffffffffffffffffffffffffffffff16815260200190815260200160002060000160008560020160009054906101000a900473ffffffffffffffffffffffffffffffffffffffff1673ffffffffffffffffffffffffffffffffffffffff1673ffffffffffffffffffffffffffffffffffffffff16815260200190815260200160002060008282546109f49190611e0e565b9250508190555060018360040160006101000a81548160ff0219169083151502179055508260010160009054906101000a900473ffffffffffffffffffffffffffffffffffffffff1673ffffffffffffffffffffffffffffffffffffffff168273ffffffffffffffffffffffffffffffffffffffff16857ff660bf8a2c07a68c258df1ed8311a30a62cddf26264613421acb7b70fcba53878660020160009054906101000a900473ffffffffffffffffffffffffffffffffffffffff168760030160009054906101000a90046fffffffffffffffffffffffffffffffff168860030160109054906101000a90046fffffffffffffffffffffffffffffffff16604051610b0293929190611e91565b60405180910390a4505050610b1561100f565b50565b610b20611019565b610b2a60006110a0565b565b610b34611019565b610b66610b3f610b6a565b828473ffffffffffffffffffffffffffffffffffffffff166111669092919063ffffffff16565b5050565b6000600160009054906101000a900473ffffffffffffffffffffffffffffffffffffffff16905090565b610b9c610fc9565b610bb884836fffffffffffffffffffffffffffffffff166111e5565b610bc484848484611311565b610bcc61100f565b50505050565b60036020528060005260406000206000915090508060000160009054906101000a900473ffffffffffffffffffffffffffffffffffffffff16908060010160009054906101000a900473ffffffffffffffffffffffffffffffffffffffff16908060020160009054906101000a900473ffffffffffffffffffffffffffffffffffffffff16908060030160009054906101000a90046fffffffffffffffffffffffffffffffff16908060030160109054906101000a90046fffffffffffffffffffffffffffffffff16908060040160009054906101000a900460ff16908060040160019054906101000a900460ff16905087565b6000600260008473ffffffffffffffffffffffffffffffffffffffff1673ffffffffffffffffffffffffffffffffffffffff16815260200190815260200160002060000160008373ffffffffffffffffffffffffffffffffffffffff1673ffffffffffffffffffffffffffffffffffffffff16815260200190815260200160002054905092915050565b610d58611019565b600073ffffffffffffffffffffffffffffffffffffffff168173ffffffffffffffffffffffffffffffffffffffff1603610dca5760006040517f1e4fbdf7000000000000000000000000000000000000000000000000000000008152600401610dc19190611c0f565b60405180910390fd5b610dd3816110a0565b50565b610dde610fc9565b80600260003373ffffffffffffffffffffffffffffffffffffffff1673ffffffffffffffffffffffffffffffffffffffff16815260200190815260200160002060000160008473ffffffffffffffffffffffffffffffffffffffff1673ffffffffffffffffffffffffffffffffffffffff168152602001908152602001600020541015610e97576040517f0e1eddda00000000000000000000000000000000000000000000000000000000815260040160405180910390fd5b80600260003373ffffffffffffffffffffffffffffffffffffffff1673ffffffffffffffffffffffffffffffffffffffff16815260200190815260200160002060000160008473ffffffffffffffffffffffffffffffffffffffff1673ffffffffffffffffffffffffffffffffffffffff1681526020019081526020016000206000828254610f269190611e5d565b92505081905550610f5833828473ffffffffffffffffffffffffffffffffffffffff166111669092919063ffffffff16565b8173ffffffffffffffffffffffffffffffffffffffff163373ffffffffffffffffffffffffffffffffffffffff167f2717ead6b9200dd235aad468c9809ea400fe33ac69b5bfaa6d3e90fc922b639883604051610fb59190611ae9565b60405180910390a3610fc561100f565b5050565b600260005403611005576040517f3ee5aeb500000000000000000000000000000000000000000000000000000000815260040160405180910390fd5b6002600081905550565b6001600081905550565b6110216117f8565b73ffffffffffffffffffffffffffffffffffffffff1661103f610b6a565b73ffffffffffffffffffffffffffffffffffffffff161461109e576110626117f8565b6040517f118cdaa70000000000000000000000000000000000000000000000000000000081526004016110959190611c0f565b60405180910390fd5b565b6000600160009054906101000a900473ffffffffffffffffffffffffffffffffffffffff16905081600160006101000a81548173ffffffffffffffffffffffffffffffffffffffff021916908373ffffffffffffffffffffffffffffffffffffffff1602179055508173ffffffffffffffffffffffffffffffffffffffff168173ffffffffffffffffffffffffffffffffffffffff167f8be0079c531659141344cd1fd0a4f28419497f9722a3daafe3b4186f6b6457e060405160405180910390a35050565b6111e0838473ffffffffffffffffffffffffffffffffffffffff1663a9059cbb8585604051602401611199929190611ec8565b604051602081830303815290604052915060e01b6020820180517bffffffffffffffffffffffffffffffffffffffffffffffffffffffff8381831617835250505050611800565b505050565b6112123330838573ffffffffffffffffffffffffffffffffffffffff16611897909392919063ffffffff16565b80600260003373ffffffffffffffffffffffffffffffffffffffff1673ffffffffffffffffffffffffffffffffffffffff16815260200190815260200160002060000160008473ffffffffffffffffffffffffffffffffffffffff1673ffffffffffffffffffffffffffffffffffffffff16815260200190815260200160002060008282546112a19190611e0e565b925050819055508173ffffffffffffffffffffffffffffffffffffffff163373ffffffffffffffffffffffffffffffffffffffff167f1de3ece35391f6bba650736f2d5d3f12e2cfc54538a340cc5d762d34ca449de7836040516113059190611ae9565b60405180910390a35050565b8273ffffffffffffffffffffffffffffffffffffffff168473ffffffffffffffffffffffffffffffffffffffff16148061135d57506000826fffffffffffffffffffffffffffffffff16145b8061137a57506000816fffffffffffffffffffffffffffffffff16145b156113b1576040517faf61069300000000000000000000000000000000000000000000000000000000815260040160405180910390fd5b816fffffffffffffffffffffffffffffffff16600260003373ffffffffffffffffffffffffffffffffffffffff1673ffffffffffffffffffffffffffffffffffffffff16815260200190815260200160002060000160008673ffffffffffffffffffffffffffffffffffffffff1673ffffffffffffffffffffffffffffffffffffffff16815260200190815260200160002054101561147c576040517f0e1eddda00000000000000000000000000000000000000000000000000000000815260040160405180910390fd5b60006004600081548092919061149190611ef1565b9190505590506040518060e001604052803373ffffffffffffffffffffffffffffffffffffffff1681526020018673ffffffffffffffffffffffffffffffffffffffff1681526020018573ffffffffffffffffffffffffffffffffffffffff168152602001846fffffffffffffffffffffffffffffffff168152602001836fffffffffffffffffffffffffffffffff168152602001600015158152602001600015158152506003600083815260200190815260200160002060008201518160000160006101000a81548173ffffffffffffffffffffffffffffffffffffffff021916908373ffffffffffffffffffffffffffffffffffffffff16021790555060208201518160010160006101000a81548173ffffffffffffffffffffffffffffffffffffffff021916908373ffffffffffffffffffffffffffffffffffffffff16021790555060408201518160020160006101000a81548173ffffffffffffffffffffffffffffffffffffffff021916908373ffffffffffffffffffffffffffffffffffffffff16021790555060608201518160030160006101000a8154816fffffffffffffffffffffffffffffffff02191690836fffffffffffffffffffffffffffffffff16021790555060808201518160030160106101000a8154816fffffffffffffffffffffffffffffffff02191690836fffffffffffffffffffffffffffffffff16021790555060a08201518160040160006101000a81548160ff02191690831515021790555060c08201518160040160016101000a81548160ff021916908315150217905550905050826fffffffffffffffffffffffffffffffff16600260003373ffffffffffffffffffffffffffffffffffffffff1673ffffffffffffffffffffffffffffffffffffffff16815260200190815260200160002060000160008773ffffffffffffffffffffffffffffffffffffffff1673ffffffffffffffffffffffffffffffffffffffff16815260200190815260200160002060008282546117809190611e5d565b925050819055508473ffffffffffffffffffffffffffffffffffffffff163373ffffffffffffffffffffffffffffffffffffffff16827f5cd2f3a64b6e68c8467be794bc2ff89e8aa13097c122e932405f8bb296c16ccd8787876040516117e993929190611e91565b60405180910390a45050505050565b600033905090565b600061182b828473ffffffffffffffffffffffffffffffffffffffff1661191990919063ffffffff16565b9050600081511415801561185057508080602001905181019061184e9190611f65565b155b1561189257826040517f5274afe70000000000000000000000000000000000000000000000000000000081526004016118899190611c0f565b60405180910390fd5b505050565b611913848573ffffffffffffffffffffffffffffffffffffffff166323b872dd8686866040516024016118cc93929190611f92565b604051602081830303815290604052915060e01b6020820180517bffffffffffffffffffffffffffffffffffffffffffffffffffffffff8381831617835250505050611800565b50505050565b60606119278383600061192f565b905092915050565b60608147101561197657306040517fcd78605900000000000000000000000000000000000000000000000000000000815260040161196d9190611c0f565b60405180910390fd5b6000808573ffffffffffffffffffffffffffffffffffffffff16848660405161199f919061203a565b60006040518083038185875af1925050503d80600081146119dc576040519150601f19603f3d011682016040523d82523d6000602084013e6119e1565b606091505b50915091506119f18683836119fc565b925050509392505050565b606082611a1157611a0c82611a8b565b611a83565b60008251148015611a39575060008473ffffffffffffffffffffffffffffffffffffffff163b145b15611a7b57836040517f9996b315000000000000000000000000000000000000000000000000000000008152600401611a729190611c0f565b60405180910390fd5b819050611a84565b5b9392505050565b600081511115611a9e5780518082602001fd5b6040517f1425ea4200000000000000000000000000000000000000000000000000000000815260040160405180910390fd5b6000819050919050565b611ae381611ad0565b82525050565b6000602082019050611afe6000830184611ada565b92915050565b600080fd5b611b1281611ad0565b8114611b1d57600080fd5b50565b600081359050611b2f81611b09565b92915050565b600060208284031215611b4b57611b4a611b04565b5b6000611b5984828501611b20565b91505092915050565b600073ffffffffffffffffffffffffffffffffffffffff82169050919050565b6000611b8d82611b62565b9050919050565b611b9d81611b82565b8114611ba857600080fd5b50565b600081359050611bba81611b94565b92915050565b60008060408385031215611bd757611bd6611b04565b5b6000611be585828601611bab565b9250506020611bf685828601611b20565b9150509250929050565b611c0981611b82565b82525050565b6000602082019050611c246000830184611c00565b92915050565b60006fffffffffffffffffffffffffffffffff82169050919050565b611c4f81611c2a565b8114611c5a57600080fd5b50565b600081359050611c6c81611c46565b92915050565b60008060008060808587031215611c8c57611c8b611b04565b5b6000611c9a87828801611bab565b9450506020611cab87828801611bab565b9350506040611cbc87828801611c5d565b9250506060611ccd87828801611c5d565b91505092959194509250565b611ce281611c2a565b82525050565b60008115159050919050565b611cfd81611ce8565b82525050565b600060e082019050611d18600083018a611c00565b611d256020830189611c00565b611d326040830188611c00565b611d3f6060830187611cd9565b611d4c6080830186611cd9565b611d5960a0830185611cf4565b611d6660c0830184611cf4565b98975050505050505050565b60008060408385031215611d8957611d88611b04565b5b6000611d9785828601611bab565b9250506020611da885828601611bab565b9150509250929050565b600060208284031215611dc857611dc7611b04565b5b6000611dd684828501611bab565b91505092915050565b7f4e487b7100000000000000000000000000000000000000000000000000000000600052601160045260246000fd5b6000611e1982611ad0565b9150611e2483611ad0565b9250828201905080821115611e3c57611e3b611ddf565b5b92915050565b6000602082019050611e576000830184611cd9565b92915050565b6000611e6882611ad0565b9150611e7383611ad0565b9250828203905081811115611e8b57611e8a611ddf565b5b92915050565b6000606082019050611ea66000830186611c00565b611eb36020830185611cd9565b611ec06040830184611cd9565b949350505050565b6000604082019050611edd6000830185611c00565b611eea6020830184611ada565b9392505050565b6000611efc82611ad0565b91507fffffffffffffffffffffffffffffffffffffffffffffffffffffffffffffffff8203611f2e57611f2d611ddf565b5b600182019050919050565b611f4281611ce8565b8114611f4d57600080fd5b50565b600081519050611f5f81611f39565b92915050565b600060208284031215611f7b57611f7a611b04565b5b6000611f8984828501611f50565b91505092915050565b6000606082019050611fa76000830186611c00565b611fb46020830185611c00565b611fc16040830184611ada565b949350505050565b600081519050919050565b600081905092915050565b60005b83811015611ffd578082015181840152602081019050611fe2565b60008484015250505050565b600061201482611fc9565b61201e8185611fd4565b935061202e818560208601611fdf565b80840191505092915050565b60006120468284612009565b91508190509291505056fea2646970667358221220b8c318c13bf1cc0e5469da2162e696c0ea14c9b5cf93f2a6f7335c48320bdde964736f6c63430008180033",
  "linkReferences": {},
  "deployedLinkReferences": {}
}